{
  "_format": "hh-sol-artifact-1",
  "contractName": "SmartKeyConsumer",
  "sourceName": "contracts/SmartKeyConsumer.sol",
  "abi": [
    {
      "inputs": [
        {
          "internalType": "address",
          "name": "_link",
          "type": "address"
        },
        {
          "internalType": "string",
          "name": "_location",
          "type": "string"
        },
        {
          "internalType": "string",
          "name": "_deviceAddress",
          "type": "string"
        },
        {
          "internalType": "uint256",
          "name": "_windThreshold",
          "type": "uint256"
        }
      ],
      "stateMutability": "nonpayable",
      "type": "constructor"
    },
    {
      "anonymous": false,
      "inputs": [
        {
          "indexed": true,
          "internalType": "bytes32",
          "name": "id",
          "type": "bytes32"
        }
      ],
      "name": "ChainlinkCancelled",
      "type": "event"
    },
    {
      "anonymous": false,
      "inputs": [
        {
          "indexed": true,
          "internalType": "bytes32",
          "name": "id",
          "type": "bytes32"
        }
      ],
      "name": "ChainlinkFulfilled",
      "type": "event"
    },
    {
      "anonymous": false,
      "inputs": [
        {
          "indexed": true,
          "internalType": "bytes32",
          "name": "id",
          "type": "bytes32"
        }
      ],
      "name": "ChainlinkRequested",
      "type": "event"
    },
    {
      "anonymous": false,
      "inputs": [
        {
          "indexed": true,
          "internalType": "address",
          "name": "previousOwner",
          "type": "address"
        },
        {
          "indexed": true,
          "internalType": "address",
          "name": "newOwner",
          "type": "address"
        }
      ],
      "name": "OwnershipTransferred",
      "type": "event"
    },
    {
      "inputs": [
        {
          "internalType": "bytes32",
          "name": "_requestId",
          "type": "bytes32"
        },
        {
          "internalType": "uint256",
          "name": "_payment",
          "type": "uint256"
        },
        {
          "internalType": "bytes4",
          "name": "_callbackFunctionId",
          "type": "bytes4"
        },
        {
          "internalType": "uint256",
          "name": "_expiration",
          "type": "uint256"
        }
      ],
      "name": "cancelRequest",
      "outputs": [],
      "stateMutability": "nonpayable",
      "type": "function"
    },
    {
      "inputs": [],
      "name": "checkWeather",
      "outputs": [
        {
          "internalType": "bytes32",
          "name": "requestId",
          "type": "bytes32"
        }
      ],
      "stateMutability": "nonpayable",
      "type": "function"
    },
    {
      "inputs": [],
      "name": "currentWindspeedKmph",
      "outputs": [
        {
          "internalType": "uint256",
          "name": "",
          "type": "uint256"
        }
      ],
      "stateMutability": "view",
      "type": "function"
    },
    {
      "inputs": [
        {
          "internalType": "bytes32",
          "name": "_requestId",
          "type": "bytes32"
        },
        {
          "internalType": "uint256",
          "name": "_data",
          "type": "uint256"
        }
      ],
      "name": "fulfillModifyDevice",
      "outputs": [],
      "stateMutability": "nonpayable",
      "type": "function"
    },
    {
      "inputs": [
        {
          "internalType": "bytes32",
          "name": "_requestId",
          "type": "bytes32"
        },
        {
          "internalType": "uint256",
          "name": "_data",
          "type": "uint256"
        }
      ],
      "name": "fulfillWeather",
      "outputs": [],
      "stateMutability": "nonpayable",
      "type": "function"
    },
    {
      "inputs": [],
      "name": "getChainlinkToken",
      "outputs": [
        {
          "internalType": "address",
          "name": "",
          "type": "address"
        }
      ],
      "stateMutability": "view",
      "type": "function"
    },
    {
      "inputs": [],
      "name": "getDeviceStatus",
      "outputs": [
        {
          "internalType": "string",
          "name": "",
          "type": "string"
        }
      ],
      "stateMutability": "view",
      "type": "function"
    },
    {
      "inputs": [],
      "name": "owner",
      "outputs": [
        {
          "internalType": "address",
          "name": "",
          "type": "address"
        }
      ],
      "stateMutability": "view",
      "type": "function"
    },
    {
      "inputs": [],
      "name": "renounceOwnership",
      "outputs": [],
      "stateMutability": "nonpayable",
      "type": "function"
    },
    {
      "inputs": [
        {
          "internalType": "address",
          "name": "newOwner",
          "type": "address"
        }
      ],
      "name": "transferOwnership",
      "outputs": [],
      "stateMutability": "nonpayable",
      "type": "function"
    },
    {
      "inputs": [],
      "name": "withdrawLink",
      "outputs": [],
      "stateMutability": "nonpayable",
      "type": "function"
    }
  ],
  "bytecode": "0x6080604052600160045560006008553480156200001b57600080fd5b506040516200269938038062002699833981810160405260808110156200004157600080fd5b8101908080519060200190929190805160405193929190846401000000008211156200006c57600080fd5b838201915060208201858111156200008357600080fd5b8251866001820283011164010000000082111715620000a157600080fd5b8083526020830192505050908051906020019080838360005b83811015620000d7578082015181840152602081019050620000ba565b50505050905090810190601f168015620001055780820380516001836020036101000a031916815260200191505b50604052602001805160405193929190846401000000008211156200012957600080fd5b838201915060208201858111156200014057600080fd5b82518660018202830111640100000000821117156200015e57600080fd5b8083526020830192505050908051906020019080838360005b838110156200019457808201518184015260208101905062000177565b50505050905090810190601f168015620001c25780820380516001836020036101000a031916815260200191505b50604052602001805190602001909291905050506000620001e86200034d60201b60201c565b905080600660006101000a81548173ffffffffffffffffffffffffffffffffffffffff021916908373ffffffffffffffffffffffffffffffffffffffff1602179055508073ffffffffffffffffffffffffffffffffffffffff16600073ffffffffffffffffffffffffffffffffffffffff167f8be0079c531659141344cd1fd0a4f28419497f9722a3daafe3b4186f6b6457e060405160405180910390a350600073ffffffffffffffffffffffffffffffffffffffff168473ffffffffffffffffffffffffffffffffffffffff161415620002d357620002cd6200035560201b60201c565b620002e5565b620002e484620003ff60201b60201c565b5b8260079080519060200190620002fd92919062000443565b508060088190555081600a90805190602001906200031d92919062000443565b506000600b60006101000a81548160ff021916908360018111156200033e57fe5b021790555050505050620004f2565b600033905090565b620003fd73c89bd4e1632d3a43cb03aaad5262cbe4038bc57173ffffffffffffffffffffffffffffffffffffffff166338cc48316040518163ffffffff1660e01b815260040160206040518083038186803b158015620003b457600080fd5b505afa158015620003c9573d6000803e3d6000fd5b505050506040513d6020811015620003e057600080fd5b8101908080519060200190929190505050620003ff60201b60201c565b565b80600260006101000a81548173ffffffffffffffffffffffffffffffffffffffff021916908373ffffffffffffffffffffffffffffffffffffffff16021790555050565b828054600181600116156101000203166002900490600052602060002090601f016020900481019282601f106200048657805160ff1916838001178555620004b7565b82800160010185558215620004b7579182015b82811115620004b657825182559160200191906001019062000499565b5b509050620004c69190620004ca565b5090565b620004ef91905b80821115620004eb576000816000905550600101620004d1565b5090565b90565b61219780620005026000396000f3fe608060405234801561001057600080fd5b50600436106100a95760003560e01c8063b07eaae311610071578063b07eaae314610174578063cc3e204a146101f7578063dbb07c181461022f578063ec65d0f81461024d578063f2b89094146102b8578063f2fde38b146102f0576100a9565b8063165d35e1146100ae578063715018a6146100f85780638da5cb5b146101025780638dc654a21461014c5780639b17b2dc14610156575b600080fd5b6100b6610334565b604051808273ffffffffffffffffffffffffffffffffffffffff1673ffffffffffffffffffffffffffffffffffffffff16815260200191505060405180910390f35b610100610343565b005b61010a6104ce565b604051808273ffffffffffffffffffffffffffffffffffffffff1673ffffffffffffffffffffffffffffffffffffffff16815260200191505060405180910390f35b6101546104f8565b005b61015e6107bc565b6040518082815260200191505060405180910390f35b61017c610b81565b6040518080602001828103825283818151815260200191508051906020019080838360005b838110156101bc5780820151818401526020810190506101a1565b50505050905090810190601f1680156101e95780820380516001836020036101000a031916815260200191505b509250505060405180910390f35b61022d6004803603604081101561020d57600080fd5b810190808035906020019092919080359060200190929190505050610c2a565b005b610237610f1d565b6040518082815260200191505060405180910390f35b6102b66004803603608081101561026357600080fd5b81019080803590602001909291908035906020019092919080357bffffffffffffffffffffffffffffffffffffffffffffffffffffffff1916906020019092919080359060200190929190505050610f23565b005b6102ee600480360360408110156102ce57600080fd5b810190808035906020019092919080359060200190929190505050610fff565b005b6103326004803603602081101561030657600080fd5b81019080803573ffffffffffffffffffffffffffffffffffffffff169060200190929190505050611176565b005b600061033e611386565b905090565b61034b6113b0565b73ffffffffffffffffffffffffffffffffffffffff16600660009054906101000a900473ffffffffffffffffffffffffffffffffffffffff1673ffffffffffffffffffffffffffffffffffffffff161461040d576040517f08c379a00000000000000000000000000000000000000000000000000000000081526004018080602001828103825260208152602001807f4f776e61626c653a2063616c6c6572206973206e6f7420746865206f776e657281525060200191505060405180910390fd5b600073ffffffffffffffffffffffffffffffffffffffff16600660009054906101000a900473ffffffffffffffffffffffffffffffffffffffff1673ffffffffffffffffffffffffffffffffffffffff167f8be0079c531659141344cd1fd0a4f28419497f9722a3daafe3b4186f6b6457e060405160405180910390a36000600660006101000a81548173ffffffffffffffffffffffffffffffffffffffff021916908373ffffffffffffffffffffffffffffffffffffffff160217905550565b6000600660009054906101000a900473ffffffffffffffffffffffffffffffffffffffff16905090565b6105006113b0565b73ffffffffffffffffffffffffffffffffffffffff16600660009054906101000a900473ffffffffffffffffffffffffffffffffffffffff1673ffffffffffffffffffffffffffffffffffffffff16146105c2576040517f08c379a00000000000000000000000000000000000000000000000000000000081526004018080602001828103825260208152602001807f4f776e61626c653a2063616c6c6572206973206e6f7420746865206f776e657281525060200191505060405180910390fd5b60006105cc611386565b90508073ffffffffffffffffffffffffffffffffffffffff1663a9059cbb338373ffffffffffffffffffffffffffffffffffffffff166370a08231306040518263ffffffff1660e01b8152600401808273ffffffffffffffffffffffffffffffffffffffff1673ffffffffffffffffffffffffffffffffffffffff16815260200191505060206040518083038186803b15801561066857600080fd5b505afa15801561067c573d6000803e3d6000fd5b505050506040513d602081101561069257600080fd5b81019080805190602001909291905050506040518363ffffffff1660e01b8152600401808373ffffffffffffffffffffffffffffffffffffffff1673ffffffffffffffffffffffffffffffffffffffff16815260200182815260200192505050602060405180830381600087803b15801561070c57600080fd5b505af1158015610720573d6000803e3d6000fd5b505050506040513d602081101561073657600080fd5b81019080805190602001909291905050506107b9576040517f08c379a00000000000000000000000000000000000000000000000000000000081526004018080602001828103825260128152602001807f556e61626c6520746f207472616e73666572000000000000000000000000000081525060200191505060405180910390fd5b50565b60006107c66113b0565b73ffffffffffffffffffffffffffffffffffffffff16600660009054906101000a900473ffffffffffffffffffffffffffffffffffffffff1673ffffffffffffffffffffffffffffffffffffffff1614610888576040517f08c379a00000000000000000000000000000000000000000000000000000000081526004018080602001828103825260208152602001807f4f776e61626c653a2063616c6c6572206973206e6f7420746865206f776e657281525060200191505060405180910390fd5b60606040518060600160405280603a8152602001612100603a91396040518060400160405280601f81526020017f656266333063376337616463346130333831653132333730353231323730310081525060076040516020018084805190602001908083835b6020831061091157805182526020820191506020810190506020830392506108ee565b6001836020036101000a038019825116818451168082178552505050505050905001807f6b65793d0000000000000000000000000000000000000000000000000000000081525060040183805190602001908083835b6020831061098a5780518252602082019150602081019050602083039250610967565b6001836020036101000a038019825116818451168082178552505050505050905001807f26713d000000000000000000000000000000000000000000000000000000000081525060030182805460018160011615610100020316600290048015610a2b5780601f10610a09576101008083540402835291820191610a2b565b820191906000526020600020905b815481529060010190602001808311610a17575b5050807f26666f726d61743d6a736f6e266e756d5f6f665f646179733d31000000000000815250601a0193505050506040516020818303038152906040529050610a73612009565b610aa57f32396661396161313362663134363837383862376363346135303061343562383063cc3e204a60e01b6113b8565b9050610af16040518060400160405280600381526020017f75726c000000000000000000000000000000000000000000000000000000000081525083836113e99092919063ffffffff16565b610b536040518060400160405280600481526020017f70617468000000000000000000000000000000000000000000000000000000008152506040518060600160405280602681526020016120b760269139836113e99092919063ffffffff16565b610b7a732f90a6d021db21e1b2a077c5a37b3c7e75d15b7e8267016345785d8a000061141c565b9250505090565b606060006001811115610b9057fe5b600b60009054906101000a900460ff166001811115610bab57fe5b1415610bee576040518060400160405280600481526020017f4f70656e000000000000000000000000000000000000000000000000000000008152509050610c27565b6040518060400160405280600681526020017f436c6f736564000000000000000000000000000000000000000000000000000081525090505b90565b816005600082815260200190815260200160002060009054906101000a900473ffffffffffffffffffffffffffffffffffffffff1673ffffffffffffffffffffffffffffffffffffffff163373ffffffffffffffffffffffffffffffffffffffff1614610ce2576040517f08c379a000000000000000000000000000000000000000000000000000000000815260040180806020018281038252602881526020018061213a6028913960400191505060405180910390fd5b6005600082815260200190815260200160002060006101000a81549073ffffffffffffffffffffffffffffffffffffffff0219169055807f7cc135e0cebb02c3480ae5d74d377283180a2601f8f644edf7987b009316c63a60405160405180910390a281600981905550600854600954118015610d84575060006001811115610d6757fe5b600b60009054906101000a900460ff166001811115610d8257fe5b145b15610e3457610e2e600a8054600181600116156101000203166002900480601f016020809104026020016040519081016040528092919081815260200182805460018160011615610100020316600290048015610e225780601f10610df757610100808354040283529160200191610e22565b820191906000526020600020905b815481529060010190602001808311610e0557829003601f168201915b505050505060016116d4565b50610f18565b600854600954108015610e6b5750600180811115610e4e57fe5b600b60009054906101000a900460ff166001811115610e6957fe5b145b15610f1757610f15600a8054600181600116156101000203166002900480601f016020809104026020016040519081016040528092919081815260200182805460018160011615610100020316600290048015610f095780601f10610ede57610100808354040283529160200191610f09565b820191906000526020600020905b815481529060010190602001808311610eec57829003601f168201915b505050505060006116d4565b505b5b505050565b60095481565b610f2b6113b0565b73ffffffffffffffffffffffffffffffffffffffff16600660009054906101000a900473ffffffffffffffffffffffffffffffffffffffff1673ffffffffffffffffffffffffffffffffffffffff1614610fed576040517f08c379a00000000000000000000000000000000000000000000000000000000081526004018080602001828103825260208152602001807f4f776e61626c653a2063616c6c6572206973206e6f7420746865206f776e657281525060200191505060405180910390fd5b610ff9848484846117e1565b50505050565b816005600082815260200190815260200160002060009054906101000a900473ffffffffffffffffffffffffffffffffffffffff1673ffffffffffffffffffffffffffffffffffffffff163373ffffffffffffffffffffffffffffffffffffffff16146110b7576040517f08c379a000000000000000000000000000000000000000000000000000000000815260040180806020018281038252602881526020018061213a6028913960400191505060405180910390fd5b6005600082815260200190815260200160002060006101000a81549073ffffffffffffffffffffffffffffffffffffffff0219169055807f7cc135e0cebb02c3480ae5d74d377283180a2601f8f644edf7987b009316c63a60405160405180910390a2600082141561114c576000600b60006101000a81548160ff0219169083600181111561114257fe5b0217905550611171565b6001600b60006101000a81548160ff0219169083600181111561116b57fe5b02179055505b505050565b61117e6113b0565b73ffffffffffffffffffffffffffffffffffffffff16600660009054906101000a900473ffffffffffffffffffffffffffffffffffffffff1673ffffffffffffffffffffffffffffffffffffffff1614611240576040517f08c379a00000000000000000000000000000000000000000000000000000000081526004018080602001828103825260208152602001807f4f776e61626c653a2063616c6c6572206973206e6f7420746865206f776e657281525060200191505060405180910390fd5b600073ffffffffffffffffffffffffffffffffffffffff168173ffffffffffffffffffffffffffffffffffffffff1614156112c6576040517f08c379a00000000000000000000000000000000000000000000000000000000081526004018080602001828103825260268152602001806120916026913960400191505060405180910390fd5b8073ffffffffffffffffffffffffffffffffffffffff16600660009054906101000a900473ffffffffffffffffffffffffffffffffffffffff1673ffffffffffffffffffffffffffffffffffffffff167f8be0079c531659141344cd1fd0a4f28419497f9722a3daafe3b4186f6b6457e060405160405180910390a380600660006101000a81548173ffffffffffffffffffffffffffffffffffffffff021916908373ffffffffffffffffffffffffffffffffffffffff16021790555050565b6000600260009054906101000a900473ffffffffffffffffffffffffffffffffffffffff16905090565b600033905090565b6113c0612009565b6113c8612009565b6113df85858584611944909392919063ffffffff16565b9150509392505050565b6114008284608001516119f490919063ffffffff16565b6114178184608001516119f490919063ffffffff16565b505050565b600030600454604051602001808373ffffffffffffffffffffffffffffffffffffffff1673ffffffffffffffffffffffffffffffffffffffff1660601b815260140182815260200192505050604051602081830303815290604052805190602001209050600454836060018181525050836005600083815260200190815260200160002060006101000a81548173ffffffffffffffffffffffffffffffffffffffff021916908373ffffffffffffffffffffffffffffffffffffffff160217905550807fb5e6e01e79f91267dc17b4e6314d5d4d03593d2ceee0fbb452b750bd70ea5af960405160405180910390a2600260009054906101000a900473ffffffffffffffffffffffffffffffffffffffff1673ffffffffffffffffffffffffffffffffffffffff16634000aea0858461155487611a19565b6040518463ffffffff1660e01b8152600401808473ffffffffffffffffffffffffffffffffffffffff1673ffffffffffffffffffffffffffffffffffffffff16815260200183815260200180602001828103825283818151815260200191508051906020019080838360005b838110156115db5780820151818401526020810190506115c0565b50505050905090810190601f1680156116085780820380516001836020036101000a031916815260200191505b50945050505050602060405180830381600087803b15801561162957600080fd5b505af115801561163d573d6000803e3d6000fd5b505050506040513d602081101561165357600080fd5b81019080805190602001909291905050506116b9576040517f08c379a00000000000000000000000000000000000000000000000000000000081526004018080602001828103825260238152602001806120dd6023913960400191505060405180910390fd5b60016004600082825401925050819055508090509392505050565b60006116de612009565b6117107f32396661396161313362663134363837383862376363346135303061343562383063f2b8909460e01b6113b8565b905061175c6040518060400160405280600781526020017f616464726573730000000000000000000000000000000000000000000000000081525085836113e99092919063ffffffff16565b6117b16040518060400160405280600681526020017f73746174757300000000000000000000000000000000000000000000000000008152508460018111156117a157fe5b83611be59092919063ffffffff16565b6117d8732f90a6d021db21e1b2a077c5a37b3c7e75d15b7e8267016345785d8a000061141c565b91505092915050565b60006005600086815260200190815260200160002060009054906101000a900473ffffffffffffffffffffffffffffffffffffffff1690506005600086815260200190815260200160002060006101000a81549073ffffffffffffffffffffffffffffffffffffffff0219169055847fe1fe3afa0f7f761ff0a8b89086790efd5140d2907ebd5b7ff6bfcb5e075fd4c560405160405180910390a28073ffffffffffffffffffffffffffffffffffffffff16636ee4d553868686866040518563ffffffff1660e01b815260040180858152602001848152602001837bffffffffffffffffffffffffffffffffffffffffffffffffffffffff19167bffffffffffffffffffffffffffffffffffffffffffffffffffffffff19168152602001828152602001945050505050600060405180830381600087803b15801561192557600080fd5b505af1158015611939573d6000803e3d6000fd5b505050505050505050565b61194c612009565b61195c8560800151610100611c18565b508385600001818152505082856020019073ffffffffffffffffffffffffffffffffffffffff16908173ffffffffffffffffffffffffffffffffffffffff16815250508185604001907bffffffffffffffffffffffffffffffffffffffffffffffffffffffff191690817bffffffffffffffffffffffffffffffffffffffffffffffffffffffff191681525050849050949350505050565b611a018260038351611c6c565b611a148183611db190919063ffffffff16565b505050565b6060634042994660e01b60008084600001518560200151866040015187606001516001896080015160000151604051602401808973ffffffffffffffffffffffffffffffffffffffff1673ffffffffffffffffffffffffffffffffffffffff1681526020018881526020018781526020018673ffffffffffffffffffffffffffffffffffffffff1673ffffffffffffffffffffffffffffffffffffffff168152602001857bffffffffffffffffffffffffffffffffffffffffffffffffffffffff19167bffffffffffffffffffffffffffffffffffffffffffffffffffffffff1916815260200184815260200183815260200180602001828103825283818151815260200191508051906020019080838360005b83811015611b48578082015181840152602081019050611b2d565b50505050905090810190601f168015611b755780820380516001836020036101000a031916815260200191505b509950505050505050505050604051602081830303815290604052907bffffffffffffffffffffffffffffffffffffffffffffffffffffffff19166020820180517bffffffffffffffffffffffffffffffffffffffffffffffffffffffff83818316178352505050509050919050565b611bfc8284608001516119f490919063ffffffff16565b611c13818460800151611dd390919063ffffffff16565b505050565b611c20612076565b600060208381611c2c57fe5b0614611c455760208281611c3c57fe5b06602003820191505b81836020018181525050604051808452600081528281016020016040525082905092915050565b60178111611c9957611c938160058460ff16901b60ff161784611e1f90919063ffffffff16565b50611dac565b60ff8111611cdb57611cbe601860058460ff16901b1784611e1f90919063ffffffff16565b50611cd581600185611e3f9092919063ffffffff16565b50611dab565b61ffff8111611d1e57611d01601960058460ff16901b1784611e1f90919063ffffffff16565b50611d1881600285611e3f9092919063ffffffff16565b50611daa565b63ffffffff8111611d6357611d46601a60058460ff16901b1784611e1f90919063ffffffff16565b50611d5d81600485611e3f9092919063ffffffff16565b50611da9565b67ffffffffffffffff8111611da857611d8f601b60058460ff16901b1784611e1f90919063ffffffff16565b50611da681600885611e3f9092919063ffffffff16565b505b5b5b5b5b505050565b611db9612076565b611dcb83846000015151848551611e61565b905092915050565b60008112611dec57611de782600083611c6c565b611e1b565b611e1a826001837fffffffffffffffffffffffffffffffffffffffffffffffffffffffffffffffff03611c6c565b5b5050565b611e27612076565b611e378384600001515184611f1a565b905092915050565b611e47612076565b611e58848560000151518585611f68565b90509392505050565b611e69612076565b8251821115611e7757600080fd5b84602001518285011115611ea257611ea1856002611e9b8860200151888701611fc9565b02611fe5565b5b600080865180518760208301019350808887011115611ec15787860182525b60208701925050505b60208410611eed5780518252602082019150602081019050602084039350611eca565b60006001856020036101000a03905080198251168184511681811785525050879350505050949350505050565b611f22612076565b83602001518310611f3f57611f3e846002866020015102611fe5565b5b8351805160208583010184815381861415611f5b576001820183525b5050508390509392505050565b611f70612076565b84602001518483011115611f8e57611f8d85600286850102611fe5565b5b60006001836101000a0390508551838682010185831982511617815281518588011115611fbb5784870182525b505085915050949350505050565b600081831115611fdb57829050611fdf565b8190505b92915050565b606082600001519050611ff88383611c18565b506120038382611db1565b50505050565b6040518060a0016040528060008019168152602001600073ffffffffffffffffffffffffffffffffffffffff16815260200160007bffffffffffffffffffffffffffffffffffffffffffffffffffffffff1916815260200160008152602001612070612076565b81525090565b60405180604001604052806060815260200160008152509056fe4f776e61626c653a206e6577206f776e657220697320746865207a65726f2061646472657373646174612e63757272656e745f636f6e646974696f6e2e302e77696e6473706565644b6d7068756e61626c6520746f207472616e73666572416e6443616c6c20746f206f7261636c65687474703a2f2f6170692e776f726c64776561746865726f6e6c696e652e636f6d2f7072656d69756d2f76312f776561746865722e617368783f536f75726365206d75737420626520746865206f7261636c65206f66207468652072657175657374a26469706673582212204185e74c538dd653569fad0f9f916f79e334a3e03b2bbab5c802711e50bf0c4664736f6c63430006070033",
  "linkReferences": {},
  "deployedLinkReferences": {}
}